{
  "_format": "hh-sol-artifact-1",
  "contractName": "MultiSigWallet",
  "sourceName": "contracts/MultiSignatureWallet.sol",
  "abi": [
    {
      "inputs": [],
      "stateMutability": "nonpayable",
      "type": "constructor"
    },
    {
      "anonymous": false,
      "inputs": [
        {
          "indexed": false,
          "internalType": "address",
          "name": "from",
          "type": "address"
        },
        {
          "indexed": false,
          "internalType": "address",
          "name": "to",
          "type": "address"
        },
        {
          "indexed": false,
          "internalType": "uint256",
          "name": "amount",
          "type": "uint256"
        }
      ],
      "name": "deposition",
      "type": "event"
    },
    {
      "anonymous": false,
      "inputs": [
        {
          "indexed": false,
          "internalType": "uint256",
          "name": "index",
          "type": "uint256"
        },
        {
          "indexed": false,
          "internalType": "uint256",
          "name": "amount",
          "type": "uint256"
        },
        {
          "indexed": false,
          "internalType": "address",
          "name": "to",
          "type": "address"
        }
      ],
      "name": "transactionExecuted",
      "type": "event"
    },
    {
      "anonymous": false,
      "inputs": [
        {
          "indexed": false,
          "internalType": "uint256",
          "name": "index",
          "type": "uint256"
        },
        {
          "indexed": false,
          "internalType": "address",
          "name": "signer",
          "type": "address"
        }
      ],
      "name": "transactionSigned",
      "type": "event"
    },
    {
      "anonymous": false,
      "inputs": [
        {
          "indexed": false,
          "internalType": "uint256",
          "name": "index",
          "type": "uint256"
        },
        {
          "indexed": false,
          "internalType": "uint256",
          "name": "amount",
          "type": "uint256"
        },
        {
          "indexed": false,
          "internalType": "address",
          "name": "to",
          "type": "address"
        }
      ],
      "name": "transactionSubmitted",
      "type": "event"
    },
    {
      "inputs": [],
      "name": "_owner",
      "outputs": [
        {
          "internalType": "address",
          "name": "",
          "type": "address"
        }
      ],
      "stateMutability": "view",
      "type": "function"
    },
    {
      "inputs": [],
      "name": "getBalance",
      "outputs": [
        {
          "internalType": "uint256",
          "name": "",
          "type": "uint256"
        }
      ],
      "stateMutability": "view",
      "type": "function"
    },
    {
      "inputs": [],
      "name": "getLength",
      "outputs": [
        {
          "internalType": "uint256",
          "name": "",
          "type": "uint256"
        }
      ],
      "stateMutability": "view",
      "type": "function"
    },
    {
      "inputs": [
        {
          "internalType": "address",
          "name": "subject",
          "type": "address"
        }
      ],
      "name": "makeSomeoneOwner",
      "outputs": [],
      "stateMutability": "nonpayable",
      "type": "function"
    },
    {
      "inputs": [
        {
          "internalType": "address",
          "name": "",
          "type": "address"
        }
      ],
      "name": "owners",
      "outputs": [
        {
          "internalType": "bool",
          "name": "",
          "type": "bool"
        }
      ],
      "stateMutability": "view",
      "type": "function"
    },
    {
      "inputs": [
        {
          "internalType": "uint256",
          "name": "index",
          "type": "uint256"
        }
      ],
      "name": "showSigners",
      "outputs": [
        {
          "internalType": "address[]",
          "name": "",
          "type": "address[]"
        }
      ],
      "stateMutability": "view",
      "type": "function"
    },
    {
      "inputs": [
        {
          "internalType": "uint256",
          "name": "index",
          "type": "uint256"
        }
      ],
      "name": "showTransaction",
      "outputs": [
        {
          "components": [
            {
              "internalType": "uint256",
              "name": "amount",
              "type": "uint256"
            },
            {
              "internalType": "address",
              "name": "to",
              "type": "address"
            },
            {
              "internalType": "address[]",
              "name": "signers",
              "type": "address[]"
            },
            {
              "internalType": "bool",
              "name": "transactionExecuted",
              "type": "bool"
            }
          ],
          "internalType": "struct MultiSigWallet.Transaction",
          "name": "",
          "type": "tuple"
        }
      ],
      "stateMutability": "view",
      "type": "function"
    },
    {
      "inputs": [
        {
          "internalType": "uint256",
          "name": "index",
          "type": "uint256"
        }
      ],
      "name": "signTransaction",
      "outputs": [],
      "stateMutability": "nonpayable",
      "type": "function"
    },
    {
      "inputs": [
        {
          "internalType": "uint256",
          "name": "amount",
          "type": "uint256"
        },
        {
          "internalType": "address",
          "name": "to",
          "type": "address"
        }
      ],
      "name": "submitTransaction",
      "outputs": [
        {
          "internalType": "uint256",
          "name": "",
          "type": "uint256"
        }
      ],
      "stateMutability": "payable",
      "type": "function"
    },
    {
      "inputs": [],
      "name": "transactionCount",
      "outputs": [
        {
          "internalType": "uint256",
          "name": "",
          "type": "uint256"
        }
      ],
      "stateMutability": "view",
      "type": "function"
    },
    {
      "stateMutability": "payable",
      "type": "receive"
    }
  ],
  "bytecode": "0x60806040526000600255600260035534801561001a57600080fd5b50336000806101000a81548173ffffffffffffffffffffffffffffffffffffffff021916908373ffffffffffffffffffffffffffffffffffffffff16021790555060018060003373ffffffffffffffffffffffffffffffffffffffff1673ffffffffffffffffffffffffffffffffffffffff16815260200190815260200160002060006101000a81548160ff0219169083151502179055506117ec806100c16000396000f3fe6080604052600436106100955760003560e01c8063b77bf60011610059578063b77bf600146101d5578063be1c766b14610200578063d2794e831461022b578063eef12bcc1461025b578063fafa10cc14610284576100d7565b8063022914a7146100dc5780630c9669d21461011957806312065fe0146101565780635d9ec21014610181578063b2bdfa7b146101aa576100d7565b366100d7577fa4c109153a38aa3b62ad50230fb149d7ae8afcf9009d8accc99658536a8059a93330346040516100cd9392919061141e565b60405180910390a1005b600080fd5b3480156100e857600080fd5b5061010360048036038101906100fe9190611135565b6102c1565b6040516101109190611477565b60405180910390f35b34801561012557600080fd5b50610140600480360381019061013b919061115e565b6102e1565b60405161014d9190611455565b60405180910390f35b34801561016257600080fd5b5061016b610401565b6040516101789190611554565b60405180910390f35b34801561018d57600080fd5b506101a860048036038101906101a3919061115e565b610409565b005b3480156101b657600080fd5b506101bf610699565b6040516101cc9190611403565b60405180910390f35b3480156101e157600080fd5b506101ea6106bd565b6040516101f79190611554565b60405180910390f35b34801561020c57600080fd5b506102156106c3565b6040516102229190611554565b60405180910390f35b61024560048036038101906102409190611187565b6106d0565b6040516102529190611554565b60405180910390f35b34801561026757600080fd5b50610282600480360381019061027d9190611135565b610a0a565b005b34801561029057600080fd5b506102ab60048036038101906102a6919061115e565b610b8a565b6040516102b89190611532565b60405180910390f35b60016020528060005260406000206000915054906101000a900460ff1681565b6060816004805490501161032a576040517f08c379a0000000000000000000000000000000000000000000000000000000008152600401610321906114b2565b60405180910390fd5b60048281548110610364577f4e487b7100000000000000000000000000000000000000000000000000000000600052603260045260246000fd5b90600052602060002090600402016002018054806020026020016040519081016040528092919081815260200182805480156103f557602002820191906000526020600020905b8160009054906101000a900473ffffffffffffffffffffffffffffffffffffffff1673ffffffffffffffffffffffffffffffffffffffff16815260200190600101908083116103ab575b50505050509050919050565b600047905090565b60011515600160003373ffffffffffffffffffffffffffffffffffffffff1673ffffffffffffffffffffffffffffffffffffffff16815260200190815260200160002060009054906101000a900460ff1615151461049c576040517f08c379a0000000000000000000000000000000000000000000000000000000008152600401610493906114d2565b60405180910390fd5b60011515600560003373ffffffffffffffffffffffffffffffffffffffff1673ffffffffffffffffffffffffffffffffffffffff168152602001908152602001600020600083815260200190815260200160002060009054906101000a900460ff1615151415610541576040517f08c379a0000000000000000000000000000000000000000000000000000000008152600401610538906114f2565b60405180910390fd5b8060048054905011610588576040517f08c379a000000000000000000000000000000000000000000000000000000000815260040161057f906114b2565b60405180910390fd5b600481815481106105c2577f4e487b7100000000000000000000000000000000000000000000000000000000600052603260045260246000fd5b9060005260206000209060040201600201339080600181540180825580915050600190039060005260206000200160009091909190916101000a81548173ffffffffffffffffffffffffffffffffffffffff021916908373ffffffffffffffffffffffffffffffffffffffff16021790555060035460048281548110610671577f4e487b7100000000000000000000000000000000000000000000000000000000600052603260045260246000fd5b90600052602060002090600402016002018054905014156106965761069581610d3c565b5b50565b60008054906101000a900473ffffffffffffffffffffffffffffffffffffffff1681565b60025481565b6000600480549050905090565b600060011515600160003373ffffffffffffffffffffffffffffffffffffffff1673ffffffffffffffffffffffffffffffffffffffff16815260200190815260200160002060009054906101000a900460ff16151514610765576040517f08c379a000000000000000000000000000000000000000000000000000000000815260040161075c906114d2565b60405180910390fd5b824710156107a8576040517f08c379a000000000000000000000000000000000000000000000000000000000815260040161079f90611492565b60405180910390fd5b600060048054905090506060600060405180608001604052808781526020018673ffffffffffffffffffffffffffffffffffffffff16815260200183815260200160001515815250905060048190806001815401808255809150506001900390600052602060002090600402016000909190919091506000820151816000015560208201518160010160006101000a81548173ffffffffffffffffffffffffffffffffffffffff021916908373ffffffffffffffffffffffffffffffffffffffff160217905550604082015181600201908051906020019061088b929190611024565b5060608201518160030160006101000a81548160ff0219169083151502179055505050600483815481106108e8577f4e487b7100000000000000000000000000000000000000000000000000000000600052603260045260246000fd5b9060005260206000209060040201600201339080600181540180825580915050600190039060005260206000200160009091909190916101000a81548173ffffffffffffffffffffffffffffffffffffffff021916908373ffffffffffffffffffffffffffffffffffffffff1602179055506001600560003373ffffffffffffffffffffffffffffffffffffffff1673ffffffffffffffffffffffffffffffffffffffff168152602001908152602001600020600085815260200190815260200160002060006101000a81548160ff0219169083151502179055507f4f62a4dc3178e28fc9071e276e40bb8ebadd8b72b56dadf2d6a199925548fdc18387876040516109f69392919061156f565b60405180910390a182935050505092915050565b60011515600160003373ffffffffffffffffffffffffffffffffffffffff1673ffffffffffffffffffffffffffffffffffffffff16815260200190815260200160002060009054906101000a900460ff16151514610a9d576040517f08c379a0000000000000000000000000000000000000000000000000000000008152600401610a94906114d2565b60405180910390fd5b60001515600160008373ffffffffffffffffffffffffffffffffffffffff1673ffffffffffffffffffffffffffffffffffffffff16815260200190815260200160002060009054906101000a900460ff16151514610b30576040517f08c379a0000000000000000000000000000000000000000000000000000000008152600401610b2790611512565b60405180910390fd5b60018060008373ffffffffffffffffffffffffffffffffffffffff1673ffffffffffffffffffffffffffffffffffffffff16815260200190815260200160002060006101000a81548160ff02191690831515021790555050565b610b926110ae565b8160048054905011610bd9576040517f08c379a0000000000000000000000000000000000000000000000000000000008152600401610bd0906114b2565b60405180910390fd5b60048281548110610c13577f4e487b7100000000000000000000000000000000000000000000000000000000600052603260045260246000fd5b9060005260206000209060040201604051806080016040529081600082015481526020016001820160009054906101000a900473ffffffffffffffffffffffffffffffffffffffff1673ffffffffffffffffffffffffffffffffffffffff1673ffffffffffffffffffffffffffffffffffffffff16815260200160028201805480602002602001604051908101604052809291908181526020018280548015610d1157602002820191906000526020600020905b8160009054906101000a900473ffffffffffffffffffffffffffffffffffffffff1673ffffffffffffffffffffffffffffffffffffffff1681526020019060010190808311610cc7575b505050505081526020016003820160009054906101000a900460ff1615151515815250509050919050565b60011515600160003373ffffffffffffffffffffffffffffffffffffffff1673ffffffffffffffffffffffffffffffffffffffff16815260200190815260200160002060009054906101000a900460ff16151514610dcf576040517f08c379a0000000000000000000000000000000000000000000000000000000008152600401610dc6906114d2565b60405180910390fd5b60048181548110610e09577f4e487b7100000000000000000000000000000000000000000000000000000000600052603260045260246000fd5b906000526020600020906004020160010160009054906101000a900473ffffffffffffffffffffffffffffffffffffffff1673ffffffffffffffffffffffffffffffffffffffff166108fc60048381548110610e8e577f4e487b7100000000000000000000000000000000000000000000000000000000600052603260045260246000fd5b9060005260206000209060040201600001549081150290604051600060405180830381858888f19350505050158015610ecb573d6000803e3d6000fd5b50600160048281548110610f08577f4e487b7100000000000000000000000000000000000000000000000000000000600052603260045260246000fd5b906000526020600020906004020160030160006101000a81548160ff0219169083151502179055507fd31594e16d5e4641ea979ba14bf9716b4b92af276a4ff0d82c71f6b3710b88a68160048381548110610f8c577f4e487b7100000000000000000000000000000000000000000000000000000000600052603260045260246000fd5b90600052602060002090600402016000015460048481548110610fd8577f4e487b7100000000000000000000000000000000000000000000000000000000600052603260045260246000fd5b906000526020600020906004020160010160009054906101000a900473ffffffffffffffffffffffffffffffffffffffff166040516110199392919061156f565b60405180910390a150565b82805482825590600052602060002090810192821561109d579160200282015b8281111561109c5782518260006101000a81548173ffffffffffffffffffffffffffffffffffffffff021916908373ffffffffffffffffffffffffffffffffffffffff16021790555091602001919060010190611044565b5b5090506110aa91906110ee565b5090565b604051806080016040528060008152602001600073ffffffffffffffffffffffffffffffffffffffff168152602001606081526020016000151581525090565b5b808211156111075760008160009055506001016110ef565b5090565b60008135905061111a81611788565b92915050565b60008135905061112f8161179f565b92915050565b60006020828403121561114757600080fd5b60006111558482850161110b565b91505092915050565b60006020828403121561117057600080fd5b600061117e84828501611120565b91505092915050565b6000806040838503121561119a57600080fd5b60006111a885828601611120565b92505060206111b98582860161110b565b9150509250929050565b60006111cf83836111db565b60208301905092915050565b6111e481611601565b82525050565b6111f381611601565b82525050565b6000611204826115b6565b61120e81856115ce565b9350611219836115a6565b8060005b8381101561124a57815161123188826111c3565b975061123c836115c1565b92505060018101905061121d565b5085935050505092915050565b6000611262826115b6565b61126c81856115df565b9350611277836115a6565b8060005b838110156112a857815161128f88826111c3565b975061129a836115c1565b92505060018101905061127b565b5085935050505092915050565b6112be81611613565b82525050565b6112cd81611613565b82525050565b60006112e06010836115f0565b91506112eb82611649565b602082019050919050565b60006113036028836115f0565b915061130e82611672565b604082019050919050565b60006113266025836115f0565b9150611331826116c1565b604082019050919050565b60006113496023836115f0565b915061135482611710565b604082019050919050565b600061136c6010836115f0565b91506113778261175f565b602082019050919050565b600060808301600083015161139a60008601826113e5565b5060208301516113ad60208601826111db565b50604083015184820360408601526113c582826111f9565b91505060608301516113da60608601826112b5565b508091505092915050565b6113ee8161163f565b82525050565b6113fd8161163f565b82525050565b600060208201905061141860008301846111ea565b92915050565b600060608201905061143360008301866111ea565b61144060208301856111ea565b61144d60408301846113f4565b949350505050565b6000602082019050818103600083015261146f8184611257565b905092915050565b600060208201905061148c60008301846112c4565b92915050565b600060208201905081810360008301526114ab816112d3565b9050919050565b600060208201905081810360008301526114cb816112f6565b9050919050565b600060208201905081810360008301526114eb81611319565b9050919050565b6000602082019050818103600083015261150b8161133c565b9050919050565b6000602082019050818103600083015261152b8161135f565b9050919050565b6000602082019050818103600083015261154c8184611382565b905092915050565b600060208201905061156960008301846113f4565b92915050565b600060608201905061158460008301866113f4565b61159160208301856113f4565b61159e60408301846111ea565b949350505050565b6000819050602082019050919050565b600081519050919050565b6000602082019050919050565b600082825260208201905092915050565b600082825260208201905092915050565b600082825260208201905092915050565b600061160c8261161f565b9050919050565b60008115159050919050565b600073ffffffffffffffffffffffffffffffffffffffff82169050919050565b6000819050919050565b7f4e6f7420656e6f7567682066756e647300000000000000000000000000000000600082015250565b7f5468657265206973206e6f207472616e73616374696f6e20776974682074686160008201527f7420696e64657821000000000000000000000000000000000000000000000000602082015250565b7f596f7520646f6e27742068617665207468652072696768747320746f20646f2060008201527f7468617421000000000000000000000000000000000000000000000000000000602082015250565b7f596f7520616c7265616479207369676e65642074686973207472616e7361637460008201527f696f6e0000000000000000000000000000000000000000000000000000000000602082015250565b7f416c726561647920616e206f776e657200000000000000000000000000000000600082015250565b61179181611601565b811461179c57600080fd5b50565b6117a88161163f565b81146117b357600080fd5b5056fea26469706673582212200846b95cd9f3bb3a777c96e9c782081b5d12e0985bdd7d0a710705d2de874c2a64736f6c63430008040033",
  "linkReferences": {},
  "deployedLinkReferences": {}
}